{
  "contractName": "SmartContractAICompensation",
  "abi": [
    {
      "inputs": [
        {
          "internalType": "address payable",
          "name": "_llmAddress",
          "type": "address"
        },
        {
          "internalType": "address",
          "name": "_adminAddress",
          "type": "address"
        }
      ],
      "stateMutability": "payable",
      "type": "constructor",
      "payable": true
    },
    {
      "anonymous": false,
      "inputs": [
        {
          "indexed": false,
          "internalType": "uint256",
          "name": "refund",
          "type": "uint256"
        }
      ],
      "name": "printRefund",
      "type": "event"
    },
    {
      "anonymous": false,
      "inputs": [
        {
          "indexed": false,
          "internalType": "uint256",
          "name": "totaLlmFee",
          "type": "uint256"
        }
      ],
      "name": "printResponseFee",
      "type": "event"
    },
    {
      "anonymous": false,
      "inputs": [
        {
          "indexed": true,
          "internalType": "address",
          "name": "user",
          "type": "address"
        },
        {
          "indexed": false,
          "internalType": "uint256",
          "name": "queryID",
          "type": "uint256"
        },
        {
          "indexed": false,
          "internalType": "string",
          "name": "givenQuery",
          "type": "string"
        },
        {
          "indexed": false,
          "internalType": "string",
          "name": "givenResponse",
          "type": "string"
        }
      ],
      "name": "requestCompensation",
      "type": "event"
    },
    {
      "anonymous": false,
      "inputs": [
        {
          "indexed": true,
          "internalType": "address",
          "name": "user",
          "type": "address"
        },
        {
          "indexed": false,
          "internalType": "uint256",
          "name": "queryID",
          "type": "uint256"
        },
        {
          "indexed": false,
          "internalType": "string",
          "name": "query",
          "type": "string"
        },
        {
          "indexed": false,
          "internalType": "uint256",
          "name": "fee",
          "type": "uint256"
        },
        {
          "indexed": false,
          "internalType": "uint256",
          "name": "premium",
          "type": "uint256"
        }
      ],
      "name": "submittedQuery",
      "type": "event"
    },
    {
      "anonymous": false,
      "inputs": [
        {
          "indexed": true,
          "internalType": "address",
          "name": "user",
          "type": "address"
        },
        {
          "indexed": false,
          "internalType": "uint256",
          "name": "queryID",
          "type": "uint256"
        },
        {
          "indexed": false,
          "internalType": "bool",
          "name": "isPaid",
          "type": "bool"
        }
      ],
      "name": "triggeringCompensation",
      "type": "event"
    },
    {
      "anonymous": false,
      "inputs": [
        {
          "indexed": true,
          "internalType": "address",
          "name": "user",
          "type": "address"
        },
        {
          "indexed": false,
          "internalType": "uint256",
          "name": "queryID",
          "type": "uint256"
        },
        {
          "indexed": false,
          "internalType": "string",
          "name": "response",
          "type": "string"
        }
      ],
      "name": "updatedResponse",
      "type": "event"
    },
    {
      "inputs": [],
      "name": "adminAddress",
      "outputs": [
        {
          "internalType": "address",
          "name": "",
          "type": "address"
        }
      ],
      "stateMutability": "view",
      "type": "function",
      "constant": true
    },
    {
      "inputs": [],
      "name": "llmAddress",
      "outputs": [
        {
          "internalType": "address",
          "name": "",
          "type": "address"
        }
      ],
      "stateMutability": "view",
      "type": "function",
      "constant": true
    },
    {
      "inputs": [
        {
          "internalType": "address",
          "name": "",
          "type": "address"
        },
        {
          "internalType": "uint256",
          "name": "",
          "type": "uint256"
        }
      ],
      "name": "llmQueryResponse",
      "outputs": [
        {
          "internalType": "address",
          "name": "user",
          "type": "address"
        },
        {
          "internalType": "string",
          "name": "query",
          "type": "string"
        },
        {
          "internalType": "string",
          "name": "response",
          "type": "string"
        },
        {
          "internalType": "uint256",
          "name": "fee",
          "type": "uint256"
        },
        {
          "internalType": "uint256",
          "name": "premium",
          "type": "uint256"
        },
        {
          "internalType": "bool",
          "name": "paidCompensation",
          "type": "bool"
        }
      ],
      "stateMutability": "view",
      "type": "function",
      "constant": true
    },
    {
      "inputs": [
        {
          "internalType": "address",
          "name": "",
          "type": "address"
        }
      ],
      "name": "queryCount",
      "outputs": [
        {
          "internalType": "uint256",
          "name": "",
          "type": "uint256"
        }
      ],
      "stateMutability": "view",
      "type": "function",
      "constant": true
    },
    {
      "inputs": [],
      "name": "unitFee",
      "outputs": [
        {
          "internalType": "uint256",
          "name": "",
          "type": "uint256"
        }
      ],
      "stateMutability": "view",
      "type": "function",
      "constant": true
    },
    {
      "inputs": [
        {
          "internalType": "address",
          "name": "",
          "type": "address"
        },
        {
          "internalType": "uint256",
          "name": "",
          "type": "uint256"
        }
      ],
      "name": "userQueryDetails",
      "outputs": [
        {
          "internalType": "address",
          "name": "user",
          "type": "address"
        },
        {
          "internalType": "string",
          "name": "query",
          "type": "string"
        },
        {
          "internalType": "string",
          "name": "response",
          "type": "string"
        },
        {
          "internalType": "uint256",
          "name": "fee",
          "type": "uint256"
        },
        {
          "internalType": "uint256",
          "name": "premium",
          "type": "uint256"
        },
        {
          "internalType": "bool",
          "name": "paidCompensation",
          "type": "bool"
        }
      ],
      "stateMutability": "view",
      "type": "function",
      "constant": true
    },
    {
      "inputs": [
        {
          "internalType": "string",
          "name": "_query",
          "type": "string"
        },
        {
          "internalType": "uint256",
          "name": "_queryFee",
          "type": "uint256"
        }
      ],
      "name": "addQuery",
      "outputs": [],
      "stateMutability": "payable",
      "type": "function",
      "payable": true
    },
    {
      "inputs": [
        {
          "internalType": "address",
          "name": "_user",
          "type": "address"
        },
        {
          "internalType": "uint256",
          "name": "_queryId",
          "type": "uint256"
        },
        {
          "internalType": "string",
          "name": "_response",
          "type": "string"
        },
        {
          "internalType": "uint256",
          "name": "_queryfee",
          "type": "uint256"
        },
        {
          "internalType": "uint256",
          "name": "_responsefee",
          "type": "uint256"
        }
      ],
      "name": "updateResponse",
      "outputs": [],
      "stateMutability": "payable",
      "type": "function",
      "payable": true
    },
    {
      "inputs": [
        {
          "internalType": "address",
          "name": "_address",
          "type": "address"
        },
        {
          "internalType": "uint256",
          "name": "_id",
          "type": "uint256"
        }
      ],
      "name": "getQueryResponse",
      "outputs": [
        {
          "components": [
            {
              "internalType": "address",
              "name": "user",
              "type": "address"
            },
            {
              "internalType": "string",
              "name": "query",
              "type": "string"
            },
            {
              "internalType": "string",
              "name": "response",
              "type": "string"
            },
            {
              "internalType": "uint256",
              "name": "fee",
              "type": "uint256"
            },
            {
              "internalType": "uint256",
              "name": "premium",
              "type": "uint256"
            },
            {
              "internalType": "bool",
              "name": "paidCompensation",
              "type": "bool"
            }
          ],
          "internalType": "struct SmartContractAICompensation.QueryDetails",
          "name": "",
          "type": "tuple"
        }
      ],
      "stateMutability": "view",
      "type": "function",
      "constant": true
    },
    {
      "inputs": [
        {
          "internalType": "address",
          "name": "_user",
          "type": "address"
        },
        {
          "internalType": "uint256",
          "name": "_queryId",
          "type": "uint256"
        }
      ],
      "name": "checkingQuerycompn",
      "outputs": [],
      "stateMutability": "nonpayable",
      "type": "function"
    },
    {
      "inputs": [
        {
          "internalType": "address",
          "name": "_user",
          "type": "address"
        },
        {
          "internalType": "uint256",
          "name": "_queryId",
          "type": "uint256"
        }
      ],
      "name": "compensationPayment",
      "outputs": [],
      "stateMutability": "payable",
      "type": "function",
      "payable": true
    }
  ],
  "bytecode": "0x608060405266038d7ea4c68000600355604051620017dd380380620017dd8339810160408190526200003191620000be565b6001600160a01b038216620000635760405162461bcd60e51b81526004016200005a9062000133565b60405180910390fd5b6001600160a01b0381166200008c5760405162461bcd60e51b81526004016200005a90620000fc565b600180546001600160a01b039384166001600160a01b0319918216179091556002805492909316911617905562000178565b60008060408385031215620000d1578182fd5b8251620000de816200015f565b6020840151909250620000f1816200015f565b809150509250929050565b60208082526014908201527f77726f6e672061646d696e20616464726573732e000000000000000000000000604082015260600190565b6020808252601290820152713bb937b733902626269030b2323932b9b99760711b604082015260600190565b6001600160a01b03811681146200017557600080fd5b50565b61165580620001886000396000f3fe60806040526004361061009c5760003560e01c8063958f8eab11610064578063958f8eab14610136578063a8d387fa14610168578063aa51124914610188578063b88c778f1461019b578063c1514cf8146101bb578063fc6f9468146101e85761009c565b806313bd78f7146100a15780631e684028146100b65780635ab1bb78146100d65780637d27442e14610101578063880ae0c814610123575b600080fd5b6100b46100af36600461113e565b6101fd565b005b3480156100c257600080fd5b506100b46100d13660046110ae565b610385565b3480156100e257600080fd5b506100eb610597565b6040516100f891906114ce565b60405180910390f35b34801561010d57600080fd5b5061011661059d565b6040516100f891906111cf565b6100b46101313660046110d7565b6105ac565b34801561014257600080fd5b506101566101513660046110ae565b610a04565b6040516100f8969594939291906111e3565b34801561017457600080fd5b506101566101833660046110ae565b610b63565b6100b46101963660046110ae565b610b9a565b3480156101a757600080fd5b506100eb6101b636600461108d565b610d5d565b3480156101c757600080fd5b506101db6101d63660046110ae565b610d6f565b6040516100f89190611456565b3480156101f457600080fd5b50610116610f01565b8034116102255760405162461bcd60e51b815260040161021c90611408565b60405180910390fd5b33600090815260208190526040812054610240906001611569565b9050600061024f600234611581565b9050600061025d82346115a1565b6040805160c0810182523380825260208083018a815284518083018652600080825285870191909152606085018990526080850187905260a0850181905292835260048252848320898452825293909120825181546001600160a01b0319166001600160a01b039091161781559251805194955091936102e39260018501920190610f10565b50604082015180516102ff916002840191602090910190610f10565b50606082015160038201556080820151600482015560a0909101516005909101805460ff19169115159190911790553360008181526020819052604090819020859055517f5194fe21033b39f8bee91d533973364d6021181aafa6fe33b610c4a1816399669061037690869089908790879061153d565b60405180910390a25050505050565b336000908152602081905260409020548111156103b45760405162461bcd60e51b815260040161021c90611350565b6001600160a01b0382811660009081526004602090815260408083208584529091529020541633146103e557600080fd5b6001600160a01b038216600090815260046020908152604080832084845290915281206002018054610416906115b8565b80601f0160208091040260200160405190810160405280929190818152602001828054610442906115b8565b801561048f5780601f106104645761010080835404028352916020019161048f565b820191906000526020600020905b81548152906001019060200180831161047257829003601f168201915b5050506001600160a01b03861660009081526004602090815260408083208884529091528120600101805494955090939092506104cc91506115b8565b80601f01602080910402602001604051908101604052809291908181526020018280546104f8906115b8565b80156105455780601f1061051a57610100808354040283529160200191610545565b820191906000526020600020905b81548152906001019060200180831161052857829003601f168201915b50505050509050836001600160a01b03167fc9bdde192404cd33d05a363e6f99df6059aa48a24ac772d95415caa3e12f03ff84838560405161058993929190611508565b60405180910390a250505050565b60035481565b6001546001600160a01b031681565b6001546001600160a01b031633146105d65760405162461bcd60e51b815260040161021c906112ca565b6001600160a01b038516600090815260046020908152604080832087845290915281206003015482916106098386611569565b90507fb0675e46b27588c0e71ca0974ab0ffd7fcf5c3d8c75c82ce5afade9cd2cb31638160405161063a91906114ce565b60405180910390a1828210156106625760405162461bcd60e51b815260040161021c9061123a565b6001546040516000916001600160a01b0316908390610680906111cc565b60006040518083038185875af1925050503d80600081146106bd576040519150601f19603f3d011682016040523d82523d6000602084013e6106c2565b606091505b50509050806106e35760405162461bcd60e51b815260040161021c9061137a565b838311156107af5760006106f783856115a1565b90507feb343af8e0d941c7737099a057f23a9b13dc3c3d960d9ec4d90a05dff23943968160405161072891906114ce565b60405180910390a160008a6001600160a01b031682604051610749906111cc565b60006040518083038185875af1925050503d8060008114610786576040519150601f19603f3d011682016040523d82523d6000602084013e61078b565b606091505b50509050806107ac5760405162461bcd60e51b815260040161021c906112a2565b50505b6001600160a01b03891660009081526004602090815260408083208b845282528220600381019290925588516107eb92600201918a0190610f10565b506040805160c0810182526001600160a01b038b168082526000908152600460209081528382208c835281529290206001018054919283019161082d906115b8565b80601f0160208091040260200160405190810160405280929190818152602001828054610859906115b8565b80156108a65780601f1061087b576101008083540402835291602001916108a6565b820191906000526020600020905b81548152906001019060200180831161088957829003601f168201915b505050918352505060208082018a90526001600160a01b038c81166000908152600480845260408083208f8452855280832060038101548288015291820154606087015260059182015460ff16151560809096019590955260018054841683529084528482208e83528452939020845181546001600160a01b031916921691909117815583820151805191936109429390850192910190610f10565b506040820151805161095e916002840191602090910190610f10565b5060608201516003828101919091556080830151600483015560a0909201516005918201805460ff19169115159190911790556001546001600160a01b039081166000908152602092835260408082208d835290935282902090920186905551908a16907fd42def2a31d430b11a46467b402b2fd8cc8961a868518934626ecaed64709e9c906109f1908b908b906114e7565b60405180910390a2505050505050505050565b6004602090815260009283526040808420909152908252902080546001820180546001600160a01b039092169291610a3b906115b8565b80601f0160208091040260200160405190810160405280929190818152602001828054610a67906115b8565b8015610ab45780601f10610a8957610100808354040283529160200191610ab4565b820191906000526020600020905b815481529060010190602001808311610a9757829003601f168201915b505050505090806002018054610ac9906115b8565b80601f0160208091040260200160405190810160405280929190818152602001828054610af5906115b8565b8015610b425780601f10610b1757610100808354040283529160200191610b42565b820191906000526020600020905b815481529060010190602001808311610b2557829003601f168201915b50505050600383015460048401546005909401549293909290915060ff1686565b6005602090815260009283526040808420909152908252902080546001820180546001600160a01b039092169291610a3b906115b8565b6002546001600160a01b03163314610bc45760405162461bcd60e51b815260040161021c9061130b565b6001600160a01b038216600090815260046020908152604080832084845290915290206005015460ff1615610c0b5760405162461bcd60e51b815260040161021c906113a4565b6001600160a01b0382166000818152600460208181526040808420868552909152909120015490311015610c515760405162461bcd60e51b815260040161021c906113d1565b6001600160a01b0382166000818152600460208181526040808420868552909152808320909101549051919291610c87906111cc565b60006040518083038185875af1925050503d8060008114610cc4576040519150601f19603f3d011682016040523d82523d6000602084013e610cc9565b606091505b5050905080610cea5760405162461bcd60e51b815260040161021c9061137a565b6001600160a01b038316600081815260046020818152604080842087855290915280832060058101805460ff191660011790819055920192909255905160ff90911691907f7777b99c71c857f04200a33863a807ac8761abdf07a5a6d63823ba78aab8551c9061058990869085906114d7565b60006020819052908152604090205481565b610d77610f94565b6001600160a01b038084166000908152600460209081526040808320868452825291829020825160c081019093528054909316825260018301805492939291840191610dc2906115b8565b80601f0160208091040260200160405190810160405280929190818152602001828054610dee906115b8565b8015610e3b5780601f10610e1057610100808354040283529160200191610e3b565b820191906000526020600020905b815481529060010190602001808311610e1e57829003601f168201915b50505050508152602001600282018054610e54906115b8565b80601f0160208091040260200160405190810160405280929190818152602001828054610e80906115b8565b8015610ecd5780601f10610ea257610100808354040283529160200191610ecd565b820191906000526020600020905b815481529060010190602001808311610eb057829003601f168201915b5050509183525050600382015460208201526004820154604082015260059091015460ff1615156060909101529392505050565b6002546001600160a01b031681565b828054610f1c906115b8565b90600052602060002090601f016020900481019282610f3e5760008555610f84565b82601f10610f5757805160ff1916838001178555610f84565b82800160010185558215610f84579182015b82811115610f84578251825591602001919060010190610f69565b50610f90929150610fd5565b5090565b6040518060c0016040528060006001600160a01b03168152602001606081526020016060815260200160008152602001600081526020016000151581525090565b5b80821115610f905760008155600101610fd6565b80356001600160a01b038116811461100157600080fd5b919050565b600082601f830112611016578081fd5b813567ffffffffffffffff8082111561103157611031611609565b604051601f8301601f19908116603f0116810190828211818310171561105957611059611609565b81604052838152866020858801011115611071578485fd5b8360208701602083013792830160200193909352509392505050565b60006020828403121561109e578081fd5b6110a782610fea565b9392505050565b600080604083850312156110c0578081fd5b6110c983610fea565b946020939093013593505050565b600080600080600060a086880312156110ee578081fd5b6110f786610fea565b945060208601359350604086013567ffffffffffffffff811115611119578182fd5b61112588828901611006565b9598949750949560608101359550608001359392505050565b60008060408385031215611150578182fd5b823567ffffffffffffffff811115611166578283fd5b61117285828601611006565b95602094909401359450505050565b60008151808452815b818110156111a65760208185018101518683018201520161118a565b818111156111b75782602083870101525b50601f01601f19169290920160200192915050565b90565b6001600160a01b0391909116815260200190565b6001600160a01b038716815260c06020820181905260009061120790830188611181565b82810360408401526112198188611181565b606084019690965250506080810192909252151560a0909101529392505050565b60208082526042908201527f526573706f6e736520697320746f6f2062696720736f20696e7375666669636960408201527f656e74204c4c4d2066656520746f2070726f63657373207468652072657175656060820152611cdd60f21b608082015260a00190565b6020808252600e908201526d2932b33ab732103330b4b632b21760911b604082015260600190565b60208082526021908201527f6f6e6c79204c4c4d2063616e20617570646174652074686520726573706f6e736040820152606560f81b606082015260800190565b60208082526025908201527f6f6e6c792061646d696e732063616e20696e69746961746520636f6d70656e7360408201526430ba34b7b760d91b606082015260800190565b60208082526010908201526f125b9d985b1a59081c5d595c9e48125160821b604082015260600190565b60208082526010908201526f2a3930b739b332b9103330b4b632b21760811b604082015260600190565b602080825260139082015272105b1c9958591e4818dbdb5c195b9cd85d1959606a1b604082015260600190565b6020808252601d908201527f496e73756666696369656e7420636f6e74726163742062616c616e6365000000604082015260600190565b6020808252602e908201527f457468657220697320696e73756666696369656e7420666f722070726f63657360408201526d73696e672074686520717565727960901b606082015260800190565b602080825282516001600160a01b03168282015282015160c0604083015260009061148460e0840182611181565b90506040840151601f198483030160608501526114a18282611181565b91505060608401516080840152608084015160a084015260a0840151151560c08401528091505092915050565b90815260200190565b9182521515602082015260400190565b6000838252604060208301526115006040830184611181565b949350505050565b6000848252606060208301526115216060830185611181565b82810360408401526115338185611181565b9695505050505050565b6000858252608060208301526115566080830186611181565b6040830194909452506060015292915050565b6000821982111561157c5761157c6115f3565b500190565b60008261159c57634e487b7160e01b81526012600452602481fd5b500490565b6000828210156115b3576115b36115f3565b500390565b6002810460018216806115cc57607f821691505b602082108114156115ed57634e487b7160e01b600052602260045260246000fd5b50919050565b634e487b7160e01b600052601160045260246000fd5b634e487b7160e01b600052604160045260246000fdfea2646970667358221220c2d374cd8a83b9a2af21e570b2d4b1e76311e7310a8a292f97dfe17457de0a3764736f6c63430008010033",
  "immutableReferences": {},
  "source": "// SPDX-License-Identifier: MIT\r\npragma solidity  0.8.1;\r\npragma experimental ABIEncoderV2;\r\ncontract SmartContractAICompensation\r\n{    \r\n    mapping (address=>uint) public queryCount;\r\n    address public llmAddress;\r\n    address public adminAddress;\r\n    uint public unitFee = .001 ether;\r\n    struct QueryDetails\r\n    {\r\n        address user;\r\n        string query;\r\n        string response;\r\n        uint fee;\r\n        uint premium;\r\n        bool paidCompensation;\r\n    }\r\n\r\n    mapping ( address => mapping(uint => QueryDetails)) public userQueryDetails;\r\n    mapping ( address => mapping(uint => QueryDetails)) public llmQueryResponse;\r\n\r\n    event submittedQuery(address indexed user,uint queryID, string query, uint fee, uint premium);\r\n    event updatedResponse(address indexed user,uint queryID, string response);\r\n    event requestCompensation(address indexed user, uint queryID,string givenQuery,string givenResponse);\r\n    event triggeringCompensation(address indexed user,uint queryID,bool isPaid);\r\n    event printResponseFee(uint totaLlmFee);\r\n    event printRefund(uint refund);\r\n\r\n    constructor(address payable _llmAddress, address _adminAddress) payable {\r\n        require(_llmAddress != address(0), \"wrong LLM address.\");\r\n        require(_adminAddress != address(0), \"wrong admin address.\");\r\n        llmAddress = _llmAddress;\r\n        adminAddress = _adminAddress;\r\n    }\r\n\r\n\r\n    //Adding query and making a payment\r\n    function addQuery(string memory _query,uint _queryFee) public payable{\r\n       \r\n        require(msg.value > _queryFee, \"Ether is insufficient for processing the query\");\r\n        uint queryID=queryCount[msg.sender]+1;\r\n        uint fee=msg.value/2;\r\n        uint _premium = msg.value - fee;\r\n        userQueryDetails[msg.sender][queryID]= QueryDetails(msg.sender,_query,'',fee,_premium,false);\r\n        queryCount[msg.sender]=queryID;\r\n        emit submittedQuery(msg.sender, queryID, _query, fee, _premium);\r\n        }\r\n\r\n\r\n    //Updating the query Response\r\n    function updateResponse(address _user, uint _queryId,string memory _response,uint _queryfee,uint _responsefee) public payable{\r\n        require(msg.sender == llmAddress , \"only LLM can aupdate the response\");\r\n        uint responseFee = _responsefee;\r\n        uint paidFees = userQueryDetails[_user][_queryId].fee;\r\n        uint totaLlmFee = _queryfee + _responsefee;\r\n        emit printResponseFee(totaLlmFee);\r\n        require (paidFees >= responseFee,\"Response is too big so insufficient LLM fee to process the request\" );\r\n        (bool success, ) = payable(llmAddress).call{value: totaLlmFee}(\"\");\r\n        require(success, \"Transfer failed.\");\r\n\r\n        if (paidFees > responseFee){ \r\n            uint refund = paidFees-totaLlmFee;\r\n            emit printRefund(refund);\r\n            (bool refundSuccess,) = payable(_user).call{value: refund}(\"\");\r\n            require(refundSuccess, \"Refund failed.\");\r\n        }\r\n\r\n        // once the fees has been transferred to llm account the smartcontract variable of the user data has been updated with 0\r\n        userQueryDetails[_user][_queryId].fee=0;\r\n        userQueryDetails[_user][_queryId].response = _response;\r\n        llmQueryResponse[llmAddress][_queryId]= QueryDetails(_user, userQueryDetails[_user][_queryId].query, _response, userQueryDetails[_user][_queryId].fee,userQueryDetails[_user][_queryId].premium, userQueryDetails[_user][_queryId].paidCompensation);\r\n        llmQueryResponse[llmAddress][_queryId].fee = responseFee;\r\n        emit updatedResponse(_user, _queryId, _response);\r\n        }\r\n\r\n   \r\n\r\n\r\n    //function to get the details of user's query and response\r\n    function getQueryResponse(address _address,uint _id) public view returns(QueryDetails memory)        {\r\n            return userQueryDetails[_address][_id];\r\n    }\r\n\r\n     // function to get the details of the query that the user wants to challange and get compensation\r\n    function checkingQuerycompn(address _user,uint _queryId) public  {\r\n        require(_queryId <= queryCount[msg.sender], \"Invalid query ID\");\r\n        require(msg.sender == userQueryDetails[_user][_queryId].user);\r\n        string memory _givenResponse = userQueryDetails[_user][_queryId].response;\r\n        string memory _givenQuery = userQueryDetails[_user][_queryId].query;        \r\n        emit requestCompensation(_user,_queryId,_givenQuery,_givenResponse);\r\n    }\r\n\r\n     //Triggering Compensation while AI repsone is wrong\r\n    \r\n    function compensationPayment(address _user,uint _queryId) public payable  {\r\n        require(msg.sender == adminAddress , \"only admins can initiate compensation\");\r\n        require(userQueryDetails[_user][_queryId].paidCompensation == false, \"Already compensated\");\r\n\r\n        // uint compensationAmount = userQueryDetails[_user][_queryId].premium;\r\n        require(_user.balance >= userQueryDetails[_user][_queryId].premium, \"Insufficient contract balance\");\r\n        (bool success, ) = payable(_user).call{value: userQueryDetails[_user][_queryId].premium}(\"\"); \r\n        require(success, \"Transfer failed.\");\r\n\r\n        // the premium and paid compensation is updated once compensation has been paid to the user\r\n        userQueryDetails[_user][_queryId].paidCompensation = true ;\r\n        userQueryDetails[_user][_queryId].premium = 0;\r\n        bool _isPaid = userQueryDetails[_user][_queryId].paidCompensation ;        \r\n        emit triggeringCompensation(_user, _queryId,_isPaid);\r\n    }\r\n}\r\n\r\n\r\n\r\n\r\n\r\n\r\n\r\n\r\n\r\n\r\n\r\n\r\n\r\n\r\n\r\n/*\r\npragma solidity  0.8.1;\r\npragma experimental ABIEncoderV2;\r\ncontract SmartContractAICompensation\r\n{    \r\n    mapping (address=>uint) public queryCount;\r\n    address public llmAddress;\r\n    address public adminAddress;\r\n    uint public unitFee = .001 ether;\r\n    struct QueryDetails\r\n    {\r\n        address user;\r\n        string query;\r\n        string response;\r\n        uint fee;\r\n        uint premium;\r\n        bool paidCompensation;\r\n    }\r\n\r\n    mapping ( address => mapping(uint => QueryDetails)) public userQueryDetails;\r\n    mapping ( address => mapping(uint => QueryDetails)) public llmQueryResponse;\r\n\r\n    event submittedQuery(address indexed user,uint queryID, string query, uint fee, uint premium);\r\n    event updatedResponse(address indexed user,uint queryID, string response);\r\n    event requestCompensation(address indexed user, uint queryID,string givenQuery,string givenResponse);\r\n    event triggeringCompensation(address indexed user,uint queryID,bool isPaid);\r\n    event printResponseFee(uint totaLlmFee);\r\n    event printRefund(uint refund);\r\n\r\n    constructor(address payable _llmAddress, address _adminAddress) payable {\r\n        require(_llmAddress != address(0), \"wrong LLM address.\");\r\n        require(_adminAddress != address(0), \"wrong admin address.\");\r\n        llmAddress = _llmAddress;\r\n        adminAddress = _adminAddress;\r\n    }\r\n\r\n\r\n    //Adding query and making a payment\r\n    function addQuery(string memory _query,uint _queryFee) public payable{\r\n        //uint queryLength = bytes(_query).length;\r\n        //uint feeRequired = queryLength * unitFee;\r\n        require(msg.value > _queryFee, \"Ether is insufficient for processing the query\");\r\n        uint queryID=queryCount[msg.sender]+1;\r\n        uint fee=msg.value/2;\r\n        uint _premium = msg.value - fee;\r\n        userQueryDetails[msg.sender][queryID]= QueryDetails(msg.sender,_query,'',fee,_premium,false);\r\n        queryCount[msg.sender]=queryID;\r\n        emit submittedQuery(msg.sender, queryID, _query, fee, _premium);\r\n        }\r\n\r\n\r\n    //Updating the query Response\r\n    function updateResponse(address _user, uint _queryId,string memory _response,uint _queryfee,uint _responsefee) public payable{\r\n        require(msg.sender == llmAddress , \"only LLM can aupdate the response\");\r\n        //require(_queryId <= queryCount[_user], \"Invalid query ID\");\r\n        //uint queryID = queryCount[msg.sender];\r\n        //uint responseLength  = bytes(_response).length;\r\n        //uint responseFee = _noofTokens * unitFee ;\r\n        uint responseFee = _responsefee;\r\n        uint paidFees = userQueryDetails[_user][_queryId].fee;\r\n        //uint _queryfee = _querylength * unitFee;\r\n        uint totaLlmFee = _queryfee + _responsefee;\r\n        emit printResponseFee(totaLlmFee);\r\n        require (paidFees >= responseFee,\"Response is too big so insufficient LLM fee to process the request\" );\r\n        //(bool success, ) = payable(llmAddress).call{value: userQueryDetails[_user][_queryId].fee}(\"\");\r\n        (bool success, ) = payable(llmAddress).call{value: totaLlmFee}(\"\");\r\n        require(success, \"Transfer failed.\");\r\n\r\n        if (paidFees > responseFee){ \r\n            uint refund = paidFees-totaLlmFee;\r\n            emit printRefund(refund);\r\n            (bool refundSuccess,) = payable(_user).call{value: refund}(\"\");\r\n            require(refundSuccess, \"Refund failed.\");\r\n        }\r\n\r\n        // once the fees has been transferred to llm account the smartcontract variable of the user data has been updated with 0\r\n        userQueryDetails[_user][_queryId].fee=0;\r\n        userQueryDetails[_user][_queryId].response = _response;\r\n        llmQueryResponse[llmAddress][_queryId]= QueryDetails(_user, userQueryDetails[_user][_queryId].query, _response, userQueryDetails[_user][_queryId].fee,userQueryDetails[_user][_queryId].premium, userQueryDetails[_user][_queryId].paidCompensation);\r\n        llmQueryResponse[llmAddress][_queryId].fee = responseFee;\r\n        emit updatedResponse(_user, _queryId, _response);\r\n        }   \r\n\r\n\r\n    //function to get the details of user's query and response\r\n    function getQueryResponse(address _address,uint _id) public view returns(QueryDetails memory)        {\r\n            return userQueryDetails[_address][_id];\r\n    }\r\n\r\n     // function to get the details of the query that the user wants to challange and get compensation\r\n    function checkingQuerycompn(address _user,uint _queryId) public  {\r\n        require(_queryId <= queryCount[msg.sender], \"Invalid query ID\");\r\n        require(msg.sender == userQueryDetails[_user][_queryId].user);\r\n        string memory _givenResponse = userQueryDetails[_user][_queryId].response;\r\n        string memory _givenQuery = userQueryDetails[_user][_queryId].query;        \r\n        emit requestCompensation(_user,_queryId,_givenQuery,_givenResponse);\r\n    }\r\n\r\n     //Triggering Compensation while AI repsone is wrong\r\n    \r\n    function compensationPayment(address _user,uint _queryId) public payable  {\r\n        require(msg.sender == adminAddress , \"only admins can initiate compensation\");\r\n        require(userQueryDetails[_user][_queryId].paidCompensation == false, \"Already compensated\");\r\n\r\n        // uint compensationAmount = userQueryDetails[_user][_queryId].premium;\r\n        require(_user.balance >= userQueryDetails[_user][_queryId].premium, \"Insufficient contract balance\");\r\n        (bool success, ) = payable(_user).call{value: userQueryDetails[_user][_queryId].premium}(\"\"); \r\n        require(success, \"Transfer failed.\");\r\n\r\n        // the premium and paid compensation is updated once compensation has been paid to the user\r\n        userQueryDetails[_user][_queryId].paidCompensation = true ;\r\n        userQueryDetails[_user][_queryId].premium = 0;\r\n        bool _isPaid = userQueryDetails[_user][_queryId].paidCompensation ;        \r\n        emit triggeringCompensation(_user, _queryId,_isPaid);\r\n    }\r\n}*/",
  "sourcePath": "C:\\Users\\rajes\\MSc-Project-AI-Compensation\\contracts\\SmartContractAICompensation.sol",
  "compiler": {
    "name": "solc",
    "version": "0.8.1+commit.df193b15.Emscripten.clang"
  },
  "schemaVersion": "3.4.16",
  "updatedAt": "2024-09-23T10:23:34.851Z",
  "networkType": "ethereum",
  "devdoc": {
    "kind": "dev",
    "methods": {},
    "version": 1
  },
  "userdoc": {
    "kind": "user",
    "methods": {},
    "version": 1
  }
}